:400000000080002011000000310E0000310E000008B5044B1A6803F53F5302331A6000F027FF00BFFA46004010B5054C237833B9044B13B10448AFF300800123237010BDD3
:400040004881FF1F00000000CC290000084B10B51BB108490848AFF300800848036803B910BD074B002BFBD0BDE81040184700BF000000004C81FF1FCC290000C880FF1F18
:4000800000000000F0B5C5692E7895F801E0AF78EC7804FB07F48E421ED8E4B28E451DD3891B89B204FB01F4A4B223449BB2DB009BB204339BB2002106E0C469E45C545410
:4000C00001339BB20131C9B20729F6D909E00021D1540133DBB202E0002300E00023072BF5D990F8233033B9F0BDD15CC943D1540133DBB200E00023072BF6D9F0BD00BFD8
:4001000019B10A2904D088B270474FF6FF7070474FF6FF70704700BFC16170472DE9F04F87B00746039190469A46C36993F8029093F803B089445FFA89F993445FFA8BFB87
:400140000025039C04AE2B46324651463846FFF799FF0096012342462146384600F0E2F90135EDB20134E4B2A145EBD808F101085FFA88F8C345E4D807B0BDE8F08F00BF09
:40018000002380F8263070472DE9F84305460E4691461C46C36993F80280FFF7F1FF00276B682178284698474FF6FF7398420FD001344FF6FE739842F2D0C3B24A463146FC
:4001C0002846FFF7ABFF4644F6B20137FFB2E7E73846BDE8F88300BF10B5024C4460FFF7D3FF10BD0101000010B5046913460A461721A04710BD00BF00B583B002AA02F849
:40020000011D0121FFF7F0FF03B05DF804FB00BF10B5046900231A461821A04710BD00BF10B5046900231A461921A04710BD00BFF8B504460E461746FFF7EAFF40212046C2
:40024000FFF7DAFF25693B46324617212046A8472046FFF7E5FFF8BD10B5C46800230A461521A04710BD00BF10B5C46800230A461621A04710BD00BF10B5C46813460A46F1
:400280001721A04710BD00BF10B5C46800231A461821A04710BD00BF10B5C46800231A461921A04710BD00BF70B582B005460C4614F8011B172911D002D8152905D226E020
:4002C000192915D9FE2919D021E014F8012B8DF80720EE6800232846B047E9E714F8013B02AA02F8013D01212846FFF7C5FFDFE7EE6800231A462846B047D9E714F8012BB9
:400300008DF807202921284600F062F9D0E702B070BD00BFF8B5064614461D46A1F11403052B04D8DFE803F02505051C32320020F8BDFFF76DFF00213046FFF75DFF21465E
:400340003046FFF759FF3046FFF76AFF0120F8BD2A4618213046FFF76BFF183CE4B21835182CF5D82A4621463046FFF761FF0120F8BD90F82430FF2B02D1782380F824308E
:4003800037692B4622463046B847F8BD0120F8BDF8B5054614461E460B39042960D8DFE801F0035F0E21300022B92E49FFF77CFF0120F8BD2C49FFF777FF0120F8BD42B9A1
:4003C0002A49FFF771FF2B689B7C85F822300120F8BD2749FFF768FF2B68DB7C85F822300120F8BDFFF750FF81212846FFF734FF21462846FFF738FF2846FFF74DFF012028
:40040000F8BDFFF741FF7779FF00FFB295F822301F44FFB240212846FFF71EFF390941F010012846FFF718FF07F00F012846FFF71BFFB17941F0B0012846FFF715FF3179AA
:40044000C900326801F0F8012846FFF715FF621E12F0FF04F3D12846FFF71EFF0120F8BD0020F8BDD0290000D8290000E0290000E829000038B505460C46FFF789FF98B9D5
:400480000346092C0AD00A2C0FD1284600F01AF807492846FFF708FF012306E00549284600F00AF8012300E00123184638BD00BFF0290000282A000001608B7C80F8223014
:4004C000704700BF38B50446456900231A462821A847E56800231A4614212046A84701224B21204600F074F823681A792921204600F06EF800224B21204600F069F8236847
:400500001A792921204600F063F801224B21204600F05EF823685A792921204600F058F838BD00BF10B582B08DF805108DF806208DF8043002AB049A43F8082D8468012231
:400540000F21A04702B010BD10B5846800231A460921A04710BD00BF10B5846800231A460A21A04710BD00BF10B5846800230A460B21A04710BD00BF70B582B004460023BB
:400580008DF8053001228DF8042000910268567C8DF80630A56822686B46127C0F212046A8479DF806300133DBB28DF806309E42F0D802B070BD00BF00B583B000230093A7
:4005C00001936946FFF7D8FF03B05DF804FB00BF10B544690023A04710BD00BF0020704700230360074A8260C2600261426180F8233080F826308361FF2380F8243080F882
:4006000028307047DD050000F8B504460F4616461D46FFF7E5FFA760E6602561069B63612046FFF791FFF8BD10B51E4B01221A705B7893BB00240DE01B4B1B789C4207D050
:4006400062000332194BD2B201211948FFF7C4FD0134E4B2022CEFD901F08CF8002407E0204601F035F8012000F05EFC0134A4B201F08EF88442F3D301F08AF8044607E05F
:40068000204601F025F8012000F04EFC013CA4B2002CF5D101F008F801E001F0B9F800F0F3FF10BD6881FF1FBC81FF1FFC3100009081FF1F08B52A2907D02B2909D029299F
:4006C0000AD1104600F030FC06E00A2000F042FC02E0642001F094F9012008BD38B514461D4614390C2908D8DFE801F01F07070F131B0707070707071F00002038BD15F80C
:40070000010B00F07BFE013CE4B2002CF7D1012038BD90F824000021400800F013FE012038BD00F04FFE012038BD012038BD00BF38B5054601F05AF800240AE062000132F5
:4007400055F82430D2B201210548FFF745FD0134E4B2032CF2D9034801F03AF838BD00BF9081FF1F2906000010B584B0344B0093344B0193344B0293344B03936846FFF77D
:40078000D7FF00F041FF0023314A1370314A137046E000F047FF002000F04CFF00F05CFF80B201F0DDFD2C4901F0E6FE01F09CFA21A3D3E9002301F0EBFA02460B461EA173
:4007C000D1E9000101F030F901F0F4FC204B187001F00CF8002416E01D4B1B789C4208D1620003321D4BD2B202211D48FFF7F4FC07E0620003321B4BD2B202211848FFF7BD
:40080000EBFC0134E4B2022CE6D9174800F0E0FF1049D1E90223013243F10003C1E902230C4B1B78002BB4D000F090FE084B187804B010BDAFF30080EC51B81E85EB074013
:400840000C3200001C3200002C3200003C320000BC81FF1F6881FF1F00C07F444C3200009081FF1F5032000029060000F8B5074601704D1C6D00EDB20572680001F064FFCA
:40088000064678600C4B986802F02CF800240FE002F050F8094A80FB0223C218C317C3EB6223C3EB8323C31A26F814300134E4B2AC42EDD33846F8BD6881FF1F030820808F
:4008C00010B5044600F0A0FE00F0ACFE002000F0B1FE00F0C1FE80B2001B0028B8BF404280B210BD38B5C1F1030101EB8101C1EB0111CCB2A3B2834222D901F031FD05461A
:40090000204601F02DFD0146284601F035FE04460D4901F07DFD0D4901F072FC01F0C8FE80B200F083FF0A49204601F071FD094901F066FC01F0BCFE80B200F07DFF38BD47
:40094000002000F079FF38BD00007A440000484200007A430000964230B585B0184B0093184A01920293184B03936846FFF7E0FE01F030F800251DE0204600F0D9FF01207E
:4009800000F0D2FA0134A4B200E0002401F030F88442F1D301F02CF8044607E0204600F0C7FF012000F0C0FA013CA4B2002CF5D10135EDB2042DE8D900F0A6FF05B030BD99
:4009C00054320000643200007432000010B584B0154B0093154A01920293154B03936846FFF7A6FE00F0C6FE002407E0204600F06FFE012000F098FA0134A4B200F0C8FE1E
:400A00008442F3D300F0C4FE044607E0204600F05FFE012000F088FA013CA4B2002CF5D100F042FE04B010BD54320000843200007432000070B58EB062B600F007FB374CF9
:400A4000374B0093374B384A38492046FFF7DCFD2046FFF781FD00212046FFF785FD2046FFF7AAFD32492046FFF756FB314800F0AFFE314B0A93314B0B93314B0C93314BC3
:400A80000D930AA8FFF754FE4FF4FA6000F04CFAFFF76AFE014603A8FFF7E8FE01222A4B5A7000242EE0294B0693294A07920893284B099306A8FFF73BFE0022224B1A7050
:400AC00000F00CFF0B2509E0049B33F81400FFF7F7FE05469DF80C10FFF704FF1A4B1B78002BF1D09DF80C305A1C1E2393FBF2F39D4202DAFFF76AFF02E0FFF72DFF3446AD
:400B00000134E4B29DF81460B442CCD3049801F023FE00220C4B5A70BAE700BF9081FF1FB5060000DD0600001503000075040000F82A00002906000094320000A0320000B4
:400B4000A8320000AC3200006881FF1F54320000BC32000074320000FEE700BFF0B40022174611E050F82760F3B226F0FF0608E001EB420511F812406D78A5550132013B91
:400B8000DBB2002BF4D101371C2FEBD9F0BC704708B50A46002101F0F2FD08BDF8B5164B1B78DBB2154E3478E4B2154F3D78EDB203F00701134A11701B090132137044F0C9
:400BC0000303337045F003033B7010220E4B1A7040230E4A13700232137001220C4B1A70202203331A700A2000F0B4F93D7034704422084B1A70F8BDCF010049F8460040AF
:400C0000F94600406E5800402D51004001590040205B00407658004008B501F0A5FD08BD38B50122314B1A80182331490B7002310A80304A13704BF22A3102321180023258
:400C4000137004222C492D48FFF7E6FF02222C4B1A7008224FF040231A70032103F500731970284B1B78DBB227490B70274B1A8041F25122023B1A80002419250CE0244BAF
:400C80001B7803F0010343EA440404F003044FF4F07000F0B5FE013D0DB1032CEFD115B90320FFF759FF1B4B4FF480721A8007221A70002218490A704820023108701A7048
:400CC0000222033B1A7004220A331A70134A137843F007031370013A137843F001031370013A137843F08003137038BD8040004082400040864000405803004800410040D3
:400D00000043004008010049A146004022420040254200400440004006400040A243004038B572B6334A137843F00403137000240CE0314D630019194A0011462A440846E3
:400D400091882858FFF724FF0134E4B2082CF0D900240BE02849A3001819420088180622C16B806BFFF758FF0134E4B2002CF1D022494FF09040FFF7F1FE214A137843F0F7
:400D8000020313701032137843F0020313701D4C237843F040032370A2F58632513A137843F0100313700A2217491848FFF734FF082217491748FFF72FFF082216491748DE
:400DC000FFF72AFF164A137843F008031370154D61232B70FFF724FF81232B700122124B1A70FFF7DBFE0E2221461048FFF714FF38BD00BFE8460040CC32000074000048A2
:400E000003500140A04300403C030048C051004048030048125100405003004822510040224300400048004004000840B043004008B501F05DFC03680C2B00D1FEE7FEE7AF
:400E400008B5094B1A681044084BC31A802B02DC054B186005E001F04BFC0C2303604FF0FF32104608BD00BFCC80FF1FE081FF1F08B5104E104D16E029686B68AC68002220
:400E800004E051F8040B43F8040B0432A242F8D1E868002203E0002143F8041B04328242F9D11035013E002EE6D101F027FCFFF7C1FDFEE7010000009433000008B5104A40
:400EC000104B1A60104A136843F40073136000230AE0032B03D80D4A52F8231000E00C490C4A42F8231001332F2BF2D90A4B1A780A4B1A70074A0A4B1A60FFF711FF08BD3F
:400F00000004FA050CED00E014ED00E000000000310E00000080FF1FBC760040C080FF1F08ED00E001BE704710B5044605E0084B186800F065FDA4F50044B4F5004FF6D840
:400F4000034B586800FB04F000F05AFD10BD00BFD080FF1F08B5034B1B7A00FB03F000F04FFD08BDD080FF1F70B504460E46074B1D681F2802D90020FFF7D4FF04F01F047A
:400F8000103455F8240045F8246070BD08ED00E038B504460D46072902D90020FFF7C2FF1F2C02D90020FFF7BDFF04F01F0000F1604000F564406D01EDB2057038BD00BFE2
:400FC00038B50222114B1A7081220E3B1A70082202331A700F2511331D70002401331C704FF400420A4B1A6007212846FFF7D0FF08492846FFF7B8FF1022074B1A70074B37
:401000001C70074B1C70074B1C7038BDD649004080E100E075100000BD81FF1FC481FF1FCD81FF1FC581FF1F08B500F0F1FC064A137843F0040313701032137843F0040386
:40104000137000F0E9FC08BDA543004008B5074B1B7823B9FFF7B4FF0122044B1A70FFF7E3FF4FF40042024B1A6008BD7C81FF1F00E100E038B5A54B1C78A54B1B7813F04C
:40108000400F00F03A81E4B214F0010F00F01D819F4B1B78453B052B00F21481DFE813F006008200120112010600DF0004F0DF0504F00A04082C42D1954B1B78DBB2452B5C
:4010C00035D1944B1B7813F0FF0F10D0924B1B681B78DBB2914A137004228C4B1A7001228F4B1A7046228A4B1A702C46EDE08D4B1B7813F0020F0DD08B4A137843F00A0399
:4011000013706022824B1A704FF40042874B1A602C46DAE0864A137843F0100313701022844B1A700422023B1A702C46CDE00022764B1A704A22764B1A702C46C5E00A2C2A
:401140002BD1794A137843F0A0031370754B1B7813F0020F14D06E4B1B7813F0080F01D0092300E00A23704A11780B4313706022674B1A704FF400426C4B1A602C46A4E093
:401180006B4A137843F0100313701022694B1A700422023B1A702C4697E00020FFF7C2FE2C4692E014F0020F36D15D4B1A78D2B2584B1B78DBB29A4210D2594A1378DBB210
:4011C00055490968CB5CDBB254490B7004214F4B197013780133DBB2137076E0514B1B7813F0020F0CD0504A137843F00A0313706022474B1A704FF400424C4B1A6064E028
:401200004B4A137843F0100313701022494B1A700422023B1A7058E0424B1B7813F0020F0CD0414A137843F09A0313706022384B1A704FF400423D4B1A6046E03C4A13788A
:4012400043F01003137010223A4B1A700422023B1A70354A137843F09003137035E0364A1378DBB2354908682C490978C9B2C15413780133DBB213701278D2B2304B1B7818
:40128000DBB29A4203D21022204B1A701DE0254B1B7813F0020F0CD0234A137843F00903137060221A4B1A704FF400421F4B1A600BE01F4A137843F0100313700022134B1D
:4012C0001A7002E00020FFF72DFE14F0200F1CD00F4B1B7813F0080F01D0012300E00223114A11780B431370114A137803F0EF0313701022064B1A7038BD054B1B7813F036
:40130000100F02D11022024B1A7038BDD7490040BD81FF1FC681FF1FC081FF1FD8490040C581FF1FC781FF1FC481FF1F80E100E0D6490040D9490040CD81FF1FC881FF1FDA
:40134000CC81FF1F1A4B1B78DBB2102B29D1194B1B7813F0080F26D14FF40042164B1A604000C0B229B140F001004922104B1A7002E045220E4B1A70104B1870012201336D
:401380001A700F4B1B7813F0010FFAD00C4B1B7803F00A030A2B08D11022054B1A700320704702207047012070470020704700BFBD81FF1FD949004080E100E0D849004054
:4013C000D74900400A4B1B7813F0040F0ED01023074A13700421023A1170064A1370064B1B7813F0210FFAD00020704702207047D9490040BD81FF1FD7490040114B1B7857
:4014000013F0040F1BD0104B18700422013B1A7046220E4B1A700E4B1B7813F0010FFAD00B4B1B7813F0020F04D16022074B1A70002070476022054B1A7003207047022069
:40144000704700BFD9490040D8490040BD81FF1FD749004008B50A280FD00C2802D0082806D102E04FF4805209E04FF4807206E00020FFF757FD002201E04FF480620021EE
:40148000094B198042F2107303FB02F303F6C413064A82FB0302DB17C3EBE223044A1360044B198008BD00BFD281FF1FAD8BDB68D881FF1FD481FF1F10B500F0A9FA0446A9
:4014C0001E4A137843F0010313701032137843F0010313701A3A137843F0010313701032137843F00103137002F5AA521232137843F0030313701822114B1A70013B1A782C
:4015000042F040021A701A7802F0FC021A70C822053B1A700222A3F597530C3B1A70094A137843F0080313700A20FFF713FD0122054B1A60204600F06FFA10BDAB43004000
:4015400006590040275B004080E200E008B500F05FFA0F4A137803F0FE031370A2F5AA52153A137803F0FE0313701032137803F0FE0313701A3A137803F0FE0313701032A7
:40158000137803F0FE03137000F046FA08BD00BF0059004010B504460A280DD00C2802D0082804D101E0C22207E0422205E00020FFF7B8FCC22200E08222034B1A7020464E
:4015C000FFF748FF10BD00BF0259004008B5102000F050F807210020FFF7DAFC07490020FFF7C2FC064A137843F0060313700A20FFF7D0FF0022034B1A8008BD711600004B
:4016000001590040D081FF1F08B5054B1B7823B9FFF7DCFF0122024B1A70FFF74DFF08BD7D81FF1F024A137843F00103137070470059004010B5074B1B7813F0010401D1D2
:401640000028F8D024B10120FFF784FC014B1B78204610BD01590040034B188880B2034B1B88C01A00B27047A05B0040D481FF1F704700BF034B1A7800F0F8001043187047
:40168000704700BF02410040024B187800F00100704700BF82450040024A137843F08003137070477B640040024A137803F07F03137070477B640040014B1880704700BF01
:4016C00014680040014B1880704700BF94680040014B1880704700BF54680040014B1870704700BF8B640040014B1878704700BF6B640040014B188880B27047B468004037
:4017000008B501E0FFF7F6FFFFF7EEFF10F0100FF8D108BD10B5154A137803F0C00343F0090313701F32137843F001031370104C237843F0010323704FF47A70FFF7BCFF34
:401740004FF47A70FFF7BEFF0020FFF7C1FF0020FFF7C4FF00F05CF9237843F01003237000F05AF9FFF7CCFF10BD00BF7B6400409B64004008B5054B1B7823B9FFF7CAFFF8
:401780000122024B1A70FFF787FF08BD7E81FF1F014B188880B2704794680040014B1B689865704708ED00E04001C0B2014B1870704700BF06E400E04022014B1A607047C2
:4017C00000E100E04022014B1A60704780E100E010B50446FFF7F6FF2046FFF7DFFF0720FFF7E2FFFFF7E8FF10BD00BF08B5FFF7E9FF0248FFF7D2FF08BD00BF310E0000FE
:40180000024A137843F08003137070477D640040024A137803F07F03137070477D640040014B1880704700BF18680040014B1880704700BF98680040014B1880704700BF0B
:4018400058680040014B1870704700BF8D640040014B1878704700BF6D640040014B188880B27047B868004008B501E0FFF7F6FFFFF7EEFF10F0100FF8D108BD10B5154A18
:40188000137803F0C00343F0090313701F32137843F001031370104C237843F0010323704FF47A70FFF7BCFF4FF47A70FFF7BEFF0020FFF7C1FF0020FFF7C4FF00F0A8F8D1
:4018C000237843F01003237000F0A6F8FFF7CCFF10BD00BF7D6400409D64004008B5054B1B7823B9FFF7CAFF0122024B1A70FFF787FF08BD7F81FF1F024A137843F0800316
:40190000137070477F640040024A137803F07F03137070477F640040014B1880704700BF1C680040014B1880704700BF9C680040014B1880704700BF5C680040014B1870B3
:40194000704700BF8F640040014B1878704700BF6F640040014B188880B27047BC68004008B501E0FFF7F6FFFFF7EEFF10F0100FF8D108BD10B5154A137803F0C00343F06F
:40198000090313701F32137843F001031370104C237843F0010323704FF4AF70FFF7BCFF4FF4AF70FFF7BEFF0020FFF7C1FF0020FFF7C4FF00F02CF8237843F010032370E2
:4019C00000F02AF8FFF7CCFF10BD00BF7F6400409F64004008B5054B1B7823B9FFF7CAFF0122024B1A70FFF787FF08BD8081FF1F014B188880B270479C6800400000000074
:401A00000230800803D000BF01380046FCD17047EFF3108072B6704780F31088704700BF81F0004102E000BF83F0004330B54FEA41044FEA430594EA050F08BF90EA020FB4
:401A40001FBF54EA000C55EA020C7FEA645C7FEA655C00F0E2804FEA5454D4EB5555B8BF6D420CDD2C4480EA020281EA030382EA000083EA010180EA020281EA0303362D87
:401A800088BF30BD11F0004F4FEA01314FF4801C4CEA113102D0404261EB410113F0004F4FEA03334CEA133302D0524263EB430394EA050F00F0A780A4F10104D5F1200E90
:401AC0000DDB02FA0EFC22FA05F2801841F1000103FA0EF2801843FA05F359410EE0A5F120050EF1200E012A03FA0EFC28BF4CF0020C43FA05F3C01851EBE37101F00045AA
:401B000007D54FF0000EDCF1000C7EEB00006EEB0101B1F5801F1BD3B1F5001F0CD349085FEA30004FEA3C0C04F101044FEA445212F5800F80F09A80BCF1004F08BF5FEAC8
:401B4000500C50F1000041EB045141EA050130BD5FEA4C0C404141EB010111F4801FA4F10104E9D191F0000F04BF01460020B1FA81F308BF2033A3F10B03B3F120020CDAA0
:401B80000C3208DD02F1140CC2F10C0201FA0CF021FA02F10CE002F11402D8BFC2F1200C01FA02F120FA0CFCDCBF41EA0C019040E41AA2BF01EB0451294330BD6FEA0404B1
:401BC0001F3C1CDA0C340EDC04F11404C4F1200220FA04F001FA02F340EA030021FA04F345EA030130BDC4F10C04C4F1200220FA02F001FA04F340EA0300294630BD21FAEB
:401C000004F0294630BD94F0000F83F4801306BF81F480110134013D4EE77FEA645C18BF7FEA655C29D094EA050F08BF90EA020F05D054EA000C04BF1946104630BD91EA3E
:401C4000030F1EBF0021002030BD5FEA545C05D14000494128BF41F0004130BD14F580043CBF01F5801130BD01F0004545F0FE4141F470014FF0000030BD7FEA645C1ABFEE
:401C8000194610467FEA655C1CBF0B46024650EA013406BF52EA033591EA030F41F4002130BD00BF90F0000F04BF0021704730B54FF4806404F132044FF000054FF00001B5
:401CC00050E700BF90F0000F04BF0021704730B54FF4806404F1320410F0004548BF40424FF000013EE700BF42004FEAE2014FEA31014FEA02701FBF12F07F4393F07F4F34
:401D000081F06051704792F0000F14BF93F07F4F704730B54FF4607401F0004521F0004120E700BF50EA010208BF704730B54FF000050AE050EA010208BF704730B511F0A5
:401D4000004502D5404261EB41014FF4806404F132045FEA915C3FF4DCAE4FF003025FEADC0C18BF03325FEADC0C18BF033202EBDC02C2F1200300FA03FC20FA02F001FA93
:401D800003FE40EA0E0021FA02F11444C1E600BF70B54FF0FF0C4CF4E06C1CEA11541DBF1CEA135594EA0C0F95EA0C0F00F0DEF82C4481EA030621EA4C5123EA4C5350EA03
:401DC000013518BF52EA033541F4801143F4801338D0A0FB02CE4FF00005E1FB02E506F00042E0FB03E54FF00006E1FB03569CF0000F18BF4EF0010EA4F1FF04B6F5007F62
:401E000064F5407404D25FEA4E0E6D4146EB060642EAC62141EA55514FEAC52040EA5E504FEACE2EB4F1FD0C88BFBCF5E06F1ED8BEF1004F08BF5FEA500E50F1000041EB5C
:401E4000045170BD06F0004646EA010140EA020081EA0301B4EB5C04C2BFD4EB0C0541EA045170BD41F480114FF0000E013C00F3AB8014F1360FDEBF002001F0004170BD06
:401E8000C4F10004203C35DA0C341BDC04F11404C4F1200500FA05F320FA04F001FA05F240EA020001F0004221F0004110EBD37021FA04F642EB06015EEA430E08BF20EA4C
:401EC000D37070BDC4F10C04C4F1200500FA04F320FA05F001FA04F240EA020001F0004110EBD37041F100015EEA430E08BF20EAD37070BDC4F1200500FA05F24EEA020E26
:401F000020FA04F301FA05F243EA020321FA04F001F0004121FA04F220EA020000EBD3705EEA430E08BF20EAD37070BD94F0000F0FD101F00046400041EB010111F4801F4A
:401F400008BF013CF7D041EA060195F0000F18BF704703F00046520043EB030313F4801F08BF013DF7D043EA0603704794EA0C0F0CEA135518BF95EA0C0F0CD050EA41065F
:401F800018BF52EA4306D1D181EA030101F000414FF0000070BD50EA410606BF1046194652EA430619D094EA0C0F02D150EA013613D195EA0C0F05D152EA03361CBF1046D6
:401FC00019460AD181EA030101F0004141F0FE4141F470014FF0000070BD41F0FE4141F4780170BD70B54FF0FF0C4CF4E06C1CEA11541DBF1CEA135594EA0C0F95EA0C0F56
:4020000000F0A7F8A4EB050481EA030E52EA03354FEA013100F088804FEA03334FF0805545EA131343EA12634FEA022245EA111545EA10654FEA00260EF000419D4208BF12
:40204000964244F1FD0404F5407402D25B084FEA3202B61A65EB03055B084FEA32024FF480104FF4002CB6EB020E75EB030E22BFB61A754640EA0C005B084FEA3202B6EB92
:40208000020E75EB030E22BFB61A754640EA5C005B084FEA3202B6EB020E75EB030E22BFB61A754640EA9C005B084FEA3202B6EB020E75EB030E22BFB61A754640EADC0025
:4020C00055EA060E18D04FEA051545EA16754FEA06164FEAC30343EA52734FEAC2025FEA1C1CC0D111F4801F0BD141EA00014FF000004FF0004CB6E711F4801F04BF014385
:402100000020B4F1FD0C88BFBCF5E06F3FF6AFAEB5EB030C04BFB6EB020C5FEA500C50F1000041EB045170BD0EF0004E4EEA113114EB5C04C2BFD4EB0C0541EA045170BD20
:4021400041F480114FF0000E013C90E645EA060E8DE60CEA135594EA0C0F08BF95EA0C0F3FF43BAF94EA0C0F0AD150EA01347FF434AF95EA0C0F7FF425AF104619462CE78C
:4021800095EA0C0F06D152EA03353FF4FDAE1046194622E750EA410618BF52EA43067FF4C5AE50EA41047FF40DAF52EA43057FF4EBAE12E74A0011D212F5001211D20DD599
:4021C0006FF47873B3EB62520ED44FEAC12343F0004343EA505323FA02F070474FF00000704750EA013002D14FF0FF3070474FF00000704780F0004002E000BF81F00041E2
:4022000042001FBF5FEA410392EA030F7FEA226C7FEA236C6AD04FEA1262D2EB1363C1BFD218414048404140B8BF5B42192B88BF704710F0004F40F4000020F07F4018BFE7
:40224000404211F0004F41F4000121F07F4118BF494292EA030F3FD0A2F1010241FA03FC10EB0C00C3F1200301FA03F100F0004302D5494260EB4000B0F5000F13D3B0F18E
:40228000807F06D340084FEA310102F10102FE2A51D2B1F1004F40EBC25008BF20F0010040EA03007047490040EB000010F4000FA2F10102EDD1B0FA80FCACF1080CB2EB19
:4022C0000C0200FA0CF0AABF00EBC25052421843BCBFD0401843704792F0000F81F4000106BF80F400000132013BB5E74FEA41037FEA226C18BF7FEA236C21D092EA030FDB
:4023000004D092F0000F08BF0846704790EA010F1CBF0020704712F07F4F04D1400028BF40F00040704712F100723CBF00F50000704700F0004343F0FE4040F40000704792
:402340007FEA226216BF08467FEA23630146420206BF5FEA412390EA010F40F4800070474FF0000304E000BF10F0004348BF40425FEA000C08BF704743F0964301464FF056
:4023800000001CE050EA010208BF70474FF000030AE000BF50EA010208BF704711F0004302D5404261EB41015FEA010C02BF84460146002043F0B64308BFA3F18053A3F55B
:4023C0000003BCFA8CF2083AA3EBC25310DB01FA02FC634400FA02FCC2F12002BCF1004F20FA02F243EB020008BF20F00100704702F1200201FA02FCC2F1200250EA4C0037
:4024000021FA02F243EB020008BF20EADC7070474FF0FF0C1CEAD0521EBF1CEAD15392EA0C0F93EA0C0F6FD01A4480EA010C400218BF5FEA41211ED04FF0006343EA5010EC
:4024400043EA5111A0FB01310CF00040B1F5000F3EBF490041EAD3715B0040EA010062F17F02FD2A1DD8B3F1004F40EBC25008BF20F00100704790F0000F0CF0004C08BF87
:4024800049024CEA502040EA51207F3AC2BFD2F1FF0340EAC250704740F400004FF00003013A5DDC12F1190FDCBF00F000407047C2F10002410021FA02F1C2F1200200FA34
:4024C00002FC5FEA310040F1000053EA4C0308BF20EADC70704792F0000F00F0004C02BF400010F4000F013AF9D040EA0C0093F0000F01F0004C02BF490011F4000F013B8F
:40250000F9D041EA0C018FE70CEAD15392EA0C0F18BF93EA0C0F0AD030F0004C18BF31F0004CD8D180EA010000F00040704790F0000F17BF90F0004F084691F0000F91F0EC
:40254000004F14D092EA0C0F01D142020FD193EA0C0F03D14B0218BF084608D180EA010000F0004040F0FE4040F40000704740F0FE4040F4400070474FF0FF0C1CEAD052E5
:402580001EBF1CEAD15392EA0C0F93EA0C0F69D0A2EB030280EA010C49024FEA402037D04FF0805343EA111143EA10130CF000408B4238BF5B0042F17D024FF4000C8B42DE
:4025C00024BF5B1A40EA0C00B3EB510F24BFA3EB510340EA5C00B3EB910F24BFA3EB910340EA9C00B3EBD10F24BFA3EBD10340EADC001B0118BF5FEA1C1CE0D1FD2A3FF6B1
:4026000050AF8B4240EBC25008BF20F0010070470CF0004C4CEA50207F32C2BFD2F1FF0340EAC250704740F400004FF00003013A37E792F0000F00F0004C02BF400010F489
:40264000000F013AF9D040EA0C0093F0000F01F0004C02BF490011F4000F013BF9D041EA0C0195E70CEAD15392EA0C0F08D142027FF47DAF93EA0C0F7FF470AF084676E729
:4026800093EA0C0F04D14B023FF44CAF08466EE730F0004C18BF31F0004CCAD130F000427FF45CAF31F000437FF43CAF5FE700BF42000ED2B2F1FE4F0BD34FF09E03B3EB2F
:4026C000126209D44FEA002343F0004323FA02F070474FF00000704712F1610F01D1420202D14FF0FF3070474FF00000704700BF014B1868704700BF4081FF1F0E4B70B526
:402700001E460E4C0025E41AA410A54204D056F8253098470135F8E700F02AFE084B094C1E46E41AA4100025A54204D056F8253098470135F8E770BD7C3300007C330000DA
:402740007C33000084330000024B0146186800F06BB800BF4081FF1F024B0146186800F017B800BF4081FF1F10B5431E0A44914204D011F8014B03F8014FF8E710BD03460D
:402780000244934202D003F8011BFAE77047000038B50546002944D051F8043C0C1F002BB8BFE41800F010F91E4A1368114613B96360146030E0A3420DD92268A01883429E
:4027C00001BF18685B681218226063600C6023E0A24203D813465A68002AF9D118681918A1420BD12168014458188242196013D110685268014419605A600DE002D90C23BA
:402800002B6009E021686018824201BF106852680918216062605C602846BDE8384000F0D4B838BD8881FF1F70B5CD1C25F0030508350C2D38BF0C25002D064601DBA94221
:4028400002D90C23336046E000F0BEF8234B1C681A462146A1B10B685B1B0ED40B2B03D90B60CC18CD501EE08C420BBF63684B681360636018BF0C4615E00C464968E9E760
:40288000174C23681BB9304600F08EF820602946304600F089F8431C18D0C41C24F00304A0420DD12560304600F08FF804F10B00231D20F00700C31A0ED05A42E25070BD13
:4028C000211A304600F070F80130EBD10C233360304600F07AF8002070BD00BF8881FF1F8481FF1F38B5124B05461C68A36BD3B91820FFF729FF43F20E33A06303804AF6AD
:40290000CD33438041F2342383804EF26D63C3804DF6EC630381052343810B23838101220023C0E90423A36B00221D615A6138BD4081FF1F194B10B51C68A36BD3B91820EE
:40294000FFF702FF43F20E33A06303804AF6CD33438041F2342383804EF26D63C3804DF6EC630381052343810B23838101220023C0E90423A16B0A4C0B6948695C43094ABE
:4029800002FB0040A3FB02230132034443F10003C1E9042323F0004010BD00BF4081FF1F2DF451582D7F954C38B5064C0023054608462360FEF744FA431C02D1236803B15E
:4029C0002B6038BDDC81FF1F70477047000000001815AF19FF0000001815AE19FF0000001815A115C819FF001815A015C019FF001815AE15D5168015A8163F15D31600158A
:402A000040158D16141520160015A115C815DA1612158116CF15D916F115DB1640152E15A415A619FF0000000001140A6464323200127A000004289610080000800040009F
:402A40001815AE15D5168015A8163F15D316001540158D16141520160015A115C815DA1612158116EF15D916A115DB1600152E15A415A619FF0000001815AE15D516801550
:402A8000A8163F15D316001540158D16141520160015A115C815DA1602158116CF15D916F115DB1640152E15A415A619FF0000000001140A6464323200093D00030428963A
:402AC00010080202800040001815AE15A415D5165015A8163F15D31600154015AD168B15D9162215DB16351532158116FF15A615DA161219FF00000020FF010100000000F0
:402B0000000000000000005F5F0000000007070007070000147F7F1C7F7F140000242A7F7F2A1200466630180C666200307A4F5D377A4800000000070700000000001C3E74
:402B400063410000000041633E1C0000082A3E1C1C3E2A080008083E3E080800000080E060000000000808080808080000000060600000006030180C060301003E7F51493A
:402B8000457F3E000040427F7F40400000727B49496F660000226149497F36001814527F7F50100000276F4949793300003E7F49497B3200000301717D0F070000367F4943
:402BC000497F360000266F49497F3E000000006C6C000000000080EC6C00000000081C36634100000024242424242400004163361C08000000020351590F06003E7F415D50
:402C00005D5F1E00007C7E13137E7C00417F7F49497F36001C3E634141632200417F7F41633E1C00417F7F495D416300417F7F491D0103003C7E434151737200007F7F086D
:402C4000087F7F000041417F7F414100307040417F3F0100417F7F081C776300417F7F41406070007F7F0E1C0E7F7F007F7F060C187F7F001C3E6341633E1C00417F7F4902
:402C8000090706003C7E4351336E5C00417F7F09193F660000266F49497B32000003417F7F410300003F7F40407F3F00001F3F60603F1F007F7F3018307F7F0061731E0C69
:402CC0001E73610000074F78784F0700476371594D67730000007F7F414100000103060C18306000000041417F7F0000080C0603060C0800808080808080808000000206AE
:402D00000C080000207454543C784000433F7F44447C380000387C44446C2800387C44453F7F400000387C54545C180000487E7F490302000098BCA4A4FC7C00417F7F0849
:402D4000047C78000000447D7D4000000060E08084FC7D00417F7F10386C44000000417F7F400000787C0C380C7C7800047C78040478780000387C44447C380084FCF8A436
:402D8000243C1800183C24A4F8FC8400447C78440C08000000485C545474200000043F7F44642000003C7C40407C7C00001C3C60603C1C003C7C6038607C3C00446C38100D
:402DC000386C4400009CBCA0A0FC7C00004C64745C4C4400004141773E0808000000007F7F0000000008083E7741410002030103020101000000000000000000000000FF33
:402E0000FF00000018181818181818180000001F1F181818000000F8F8181818181818F8F80000001818181F1F0000001818181F1F181818000000FFFF181818181818F803
:402E4000F8181818181818FFFF000000181818FFFF18181800081C3E0808080000080C3E0C080000000808083E1C08000008183E1808000000000000F0F0F0F0F0F0F0F0E6
:402E800000000000F0F0F0F0F0F0F0F0000000000F0F0F0F00000000FFFFFFFFF0F0F0F00F0F0F0FF0F0F0F0FFFFFFFF0F0F0F0F000000000F0F0F0FF0F0F0F0FFFFFFFF6E
:402EC00000000000FFFFFFFFF0F0F0F00F0F0F0F0F0F0F0F0F0F0F0FFFFFFFFFFFFFFFFF0F0F0F0FFFFFFFFFFFFFFFFFC0C0C0C0C0C0C0C0FCFCFCFCFCFCFCFC0000000056
:402F0000000000000000007D7D000000387C44FE446C2800487E7F4949636200005A3C24243C5A000015577E7E571500000000777700000040487E771D090100000303004D
:402F4000000303001C225D5555221C00485D554F5E500000081C362A1C362200000808080808180000001010100000001C225D4D55221C000000010101010000000E1B11B0
:402F80001B0E00000048487E7E48480000191D1517120000001115151F0A0000000004070300000000F8F84040783800020F7F7F017F010000000018180000000000404086
:402FC000600000000000111F1F100000004E5B515B4E000022361C2A361C0800021F0030287C2000021F0048645448001115150A30287C200030784D4570300000787D15DC
:40300000147C780000787C14157D780000787C15157C780000787D15157D780000797D14147D790000787E15157E7800787C127F7F496B000C9EB3E1E1331200447D7D5478
:4030400054544400447C7C5555544400447C7D5555554400447D7D54555544000044457D7C4444000044447C7D4544000044457D7D4544000045457C7C454500497F7F492A
:40308000633E1C00007A7911227A7900387C4545447C3800387C4444457D3800387C4545457C3800387D4545457D3800387D4544457D380042663C183C6642005C3E735DDC
:4030C000673E1D01003C7D41407C3C00003C7C40417D3C00003C7D41417D3C00003D7D40407D3D00000C5D71705C0C007F7F2222221C00007E7F4949493E36002075555485
:403100003C784000207454553D784000207455553D784000207555553D794000207555543D794000207655553E7840002074547C3454580000183CA4E424280000387D5521
:40314000545C180000387C54555D180000387D55555D180000397D54545D19000000497B7A4000000000487A7B41000000004A797942000000024A78784202000035754B1E
:403180004E7D3100087A71090A7A71000030794B4A7830000030784A4B79300000307A49497A3000003279494A7A310000327A48487A32000008086B6B08080080B0786899
:4031C000587834040038794342787800003878424379780000387A41417A7800003A7A40407A7A000098B8A2A3F97800007E242424180000009ABAA0A0FA7A00202020209D
:40320000202020202020202020200000446966666963756C74793A2020202000202020456173792020202020202020002020204D656469756D202020202020002020204866
:403240006172642020202020202020003E000000200000003D3D3D3D3D3D3D3D3D3D3D3D3D3D3D007C20596F75206C6F7374203A29207C00202020202020202020202020CC
:40328000202020007C2020476F6F64204A6F622020207C004876412048424F2D49435400544920454D320000000000004C616220372050726F6A6563740000007C20202093
:4032C0004C6F636B6564202020207C00C84900401900005100401000305100404000F0510040100000000140001000140140000800400140000A004C01400002005001408A
:4033000020000000605200403403004806004300000000000000000000000000000000000000000000000000000000000000000000000000000000000000000000000000B3
:40334000000000000000000000000000000000000000000000000000000000000000000000000000000000000000000000000000F8B500BFF8BC08BC9E4670474D00000081
:40338000BD0E0000F8B500BFF8BC08BC9E46704729000000A8330000C880FF1F80000000980000000000000000000000E081FF1F0000E02EC05D00001800000000366E01DA
:4033C00000000000103300003033000050330000000000000000000000000000000000000E3300000000000000000000000000000000000000000000000000000000000063
:403400000000000000000000000000000000000000000000000000000000000000000000E080FF1F000000000000000000000000000000000000000000000000000000000E
:40344000000000000000000000000000000000000000000000000000000000000000000000000000000000000000000000000000000000000000000000000000000000004C
:40348000000000000000000000000000000000000000000000000000000000000000000000000000000000000000000000000000000000000000000000000000000000000C
:4034C00000000000000000000000000000000000000000000000000000000000000000000000000000000000000000000000000000000000000000000000000000000000CC
:40350000000000000000000000000000000000000000000000000000000000000000000000000000000000000000000000000000000000000000000000000000000000008B
:020000040003F7
:0200000480007A
:4000000001450040025200400364004001070140020901403F0A0140230B0140410C0140200D01403C0E01401C0F0140011501400117014002190140011B01400240014092
:40004000014101400342014003430140034401400945014006460140024701400548014002490140084C0140064D0140035001400251014010011002110A8B0D8D0D8F0D4B
:40008000EE049D80EE044030410449FF4AFF4BFF4DA04F0450185A045D015F01604062C06440654066C068C06AC06CC06EC0820283018A069E0CAD01AE01B008B201B4024E
:4000C000B604B701BE10C030C104C5D0C602C710C826C9FFCAFFCBFFCDAFCE0FCF04D018D280D405D804D904DA04DB04DC11DD11DF01E040E2C0E440E540E6C0E8C0EAC01B
:40010000ECC0EEC0041006800F0217401C101D081E081F8226402F023F0240104280450846804F01568057015E885F01774083809D80AB40B004B302C050C280C480CA10EF
:40014000CE80D0C3D6D0E404E8044060410249FF4AFF4BFF4DA04F0450185A045D025F01604062C06440654066C068C06AC06CC06EC0860687038E089102920196089A04B6
:40018000AA02B002B101B204B401B608B702BE41C020C103C5D1C702C813C9FFCAFFCBFFCDAFCE0FCF04D018D280D405D804D904DA04DB04DC22DD22DF01E040E2C0E4409D
:4001C000E540E6C0E8C0EAC0ECC0EEC0018003200A600B04120419201A201B622102224031023B044328460449014B044D2052045308580459015A807240B210C005C20E69
:40020000C402CC01CE02D026D220D60B4010410449FF4AFF4BFF4DA04F0450185A045F01604062C06440654066C068C06AC06CC06EC0820283018E069E0CAD01AE01B00884
:40024000B204B402B601B701BE10C010C104C5D0C602C710C826C9FFCAFFCBFFCDAFCE0FCF04D018D280D405D804D904DA04DB04DF01E040E2C0E440E540E6C0E8C0EAC02B
:40028000ECC0EEC0054006800F0217401C011DC01E281F0226402F023F0240014280458046804F01568057015E885F017740C090C280C480CA10CE80D099D6D0EA01E00493
:4002C00081809D80EA013320CC10A7203E10A720CE209610AB20EE2010101420C40C53025C4063029830A301B301D401D606E8011B04804094409830AB02C6089830AB04DC
:40030000250481049610C880E020AA10EA8010401320148078107C209830C40EDE0378407C8098C0AB20DC01DE0400070C020E05000303C020300000300000003000000013
:400340003000300000000000000B0B0000000000012A2A002A0010000E00180100000000000000000000000000000000000000000000000000000000000000000000000051
:40038000000000000000000000000000000000000000000000000000000000000000000000000000000000000000000000000000000000000000000000000000000000003D
:4003C00000000000000000000000000000000000000000000000000000000000000000000000000000000000000000000000000000000000000000000000000000000000FD
:4004000000000000000000000000000000000000000000000000000000000000000000000000000000000000000000000000000000000000000000000000000000000000BC
:40044000000000000000000000000000000000000000000000000000000000000000000000000000000000000000000000000000000000000000000000000000000000007C
:0200000490006A
:0400000000004005B7
:0200000490105A
:04000000BC90ACAF55
:0200000490303A
:02000000DB8A99
:0200000490402A
:4000000000000000000000000000000000000000000000000000000000000000000000000000000000000000000000000000000000000000000000000000000000000000C0
:400040000000000000000000000000000000000000000000000000000000000000000000000000000000000000000000000000000000000000000000000000000000000080
:400080000000000000000000000000000000000000000000000000000000000000000000000000000000000000000000000000000000000000000000000000000000000040
:4000C0000000000000000000000000000000000000000000000000000000000000000000000000000000000000000000000000000000000000000000000000000000000000
:0200000490501A
:0C00000000012E16106900012E29EBF300
:00000001FF